:020000040800F2
:10000000185F0020E10100080B3C0008B530000833
:10001000E13B0008C5100008A543000800000000EF
:10002000000000000000000000000000490100087E
:10003000BF120008000000008D0100085D3C0008B0
:10004000FB010008FB010008FB010008FB010008A0
:10005000FB010008FB010008FB010008FB01000890
:10006000FB010008FB010008FB010008FB01000880
:10007000FB010008FB0100087D120008891200083E
:10008000FB010008FB010008FB010008FB01000860
:10009000FB010008FB010008FB010008FB01000850
:1000A000FB010008FB010008FB010008FB01000840
:1000B000FB010008E93C0008F53C0008FB010008D2
:1000C000FB010008FB010008FB010008FB01000820
:1000D000FB01000899430008FB010008FB01000830
:1000E000FB010008FB010008FB010008FB01000800
:1000F000FB010008FB010008FB010008FB010008F0
:10010000FB010008FB010008FB010008FB010008DF
:10011000FB010008FB010008FB010008013D00088D
:10012000FB010008FB010008FB010008FB010008BF
:10013000DFF810D000F080FD00480047155B000894
:10014000AFF30080185F0020224B19680868B0E800
:10015000F00F80F30988BFF36F8F4FF0000080F33A
:1001600011884EF00D0E7047000000000648006830
:10017000006880F3088862B661B6BFF34F8FBFF3A3
:100180006F8F00DF00BF00BF08ED00E0EFF30980D4
:10019000BFF36F8F0F4B1A6820E9F00F106008B59E
:1001A0004FF0500080F31188BFF34F8FBFF36F8F74
:1001B00007F032F94FF0000080F31188BDE80840E5
:1001C00019680868B0E8F00F80F30988BFF36F8FF3
:1001D000704700BF58000020EFF305807047000013
:1001E0000648804706480047FEE7FEE7FEE7FEE7D1
:1001F000FEE7FEE7FEE7FEE7FEE7FEE7E73C000876
:1002000031010008202A04DB203A21FA02F0002103
:10021000704721FA02F3D040C2F120029140084316
:100220001946704740EA01039B0703D009E008C95B
:10023000121F08C0042AFAD203E011F8013B00F8AB
:10024000013B521EF9D27047D2B201E000F8012BF7
:10025000491EFBD270470022F6E710B513460A4646
:1002600004461946FFF7F0FF204610BD10B50446BE
:1002700004E00B7800F8013B03B1491C521EF8D290
:10028000204610BD70B50F4D00B92868002412E05B
:100290000A4602E09E4203D0521C1378002BF9D18B
:1002A000DAB2224305D02BB124B1002100F8011BA2
:1002B00004E00446401C0678002EE9D12860204660
:1002C00070BD0000D4000020F0B480EA0102D40F19
:1002D0004200B2EB410F02D20246084611464A00E4
:1002E00042D0C30DDDB2C1F3C752AD1A202D35DAAD
:1002F000C1F3160141F4000204B15242C5F12006D7
:1003000002FA06F12A411044B3EBD05F23D0C4B106
:10031000012DA0EBC35009DCF0BC4FF0004202EA13
:10032000C352DBB200F5000000F079BB400000F1E1
:10033000807000EBC350A0F1807040EAD17049009A
:1003400009E0490841EAC071A0EBC35000F5000084
:10035000400800EBC350F0BC00F058BB61420122E2
:1003600002EB4101001BF6E7F0BC704781F0004151
:10037000AAE780F00040A7E780EA010210B502F08A
:100380000043400022D04A001FD0010E01EB126151
:10039000C0F35600C2F3560240F4000042F40002DB
:1003A000A0FB022000047F39140400D0401C50EA56
:1003B000124001D44000491EC2B20C0604EBD0101A
:1003C000401C4008802A02D003E0002010BD20F02D
:1003D0000100002900DA0020184310BD30B480EA83
:1003E000010202F0004530F0004221F0004013D03D
:1003F00090B1C30DD40DC2F31601C0F31600E41A78
:1004000041F4000140F400027D34914201D3641CA8
:1004100000E04900002C02DA30BC002070474FF4A5
:1004200000000023914201D3891A034340084FEA98
:100430004101F7D151B1914202D14FF0004105E0A5
:1004400002D24FF0010101E06FF0010103EBC45053
:10045000284430BC00F0DABA420005D0C0F3C752DD
:100460005242914201DC0020704700EBC1507047BE
:100470002DE9FE4F804681EA0300C00F0C46009034
:1004800021F0004123F00045B8EB0200A94105D25C
:100490004046214690461C460B46024623F000404B
:1004A000104347D0270DC7F30A00C3F30A51029047
:1004B000401A019040286BDAC3F3130040F4801B0C
:1004C0000098924620B10023D2EB030A63EB0B0B9A
:1004D00001985946C0F14002504600F028FA0646FD
:1004E0000D4650465946019A00F030FA10EB0800CC
:1004F0006141002487EA115284EAE7731A4340D02D
:10050000009A62B3019A012A4FEA075215DC001BD8
:1005100061EB02014FF0004202EA0752CDE90042CE
:10052000001C41F5801132462B4600F0B5FA03B0AD
:10053000BDE8F08F40462146F9E7001B61EB020160
:10054000001C41F5801300185B412018A2F500172C
:1005500047EB030140EAD570B6196D4111E06D0813
:100560004FEA360645EAC0754FEA0752001B61EBB9
:100570000201001C41F5801149084FEA30000019C2
:10058000514132462B4603B0BDE8F04F00F075BA3A
:100590000098012240000023D0EB020263EBE073DD
:1005A000009821464FEAE074B8EB000061EB0401CB
:1005B000E9E783F000435BE781F0004158E72DE96C
:1005C000FE4F81EA030404F0004421F0004100944E
:1005D0004FF0000B23F0004350EA01045ED052EAD2
:1005E00003045BD0C3F30A54C1F30A552C44A4F2AC
:1005F000F3340194A0FB0254C1F3130141F48011C0
:10060000C3F3130343F4801301FB024400FB034EC6
:10061000840A970A44EA815447EA8357A4FB07688F
:1006200002958D0A05FB07854FEA932C04FB0C54B9
:100630002705029D4FEA065847EA1637B5EB08052D
:100640006EEB070C870E920E47EA811742EA83127F
:10065000A7FB0201B6EB0B0164EB00042B0D43EA90
:100660000C335E1844EB1C50DA465146E7FB02019E
:10067000C5F313044FEA0B3343EA14534FEA043231
:10068000019C43EA0603A4F10C040294009CCDE90A
:1006900000B400F001FA03B0BDE8F08F002001467D
:1006A000F9E72DE9F04D81EA030404F0004B21F055
:1006B000004514464FF0000A23F0004150EA0502BD
:1006C00020D054EA01021DD0C5F30A570246C5F3F3
:1006D0001303C1F31300C1F30A5640F4801543F429
:1006E0008013A7EB0608101BD64608F2FD3873EB03
:1006F000050002D308F1010801E092185B41B8F14E
:10070000000F03DA00200146BDE8F08D00204FF411
:100710008011064684460EE0171B73EB050705D3D0
:10072000121B63EB050306434CEA010C49084FEA30
:10073000300092185B4150EA0107EDD152EA030004
:1007400012D082EA040083EA0501084305D0101B99
:10075000AB4106D20122002306E000224FF0004305
:1007600002E06FF0010253101AEB06004CEB085147
:1007700010EB0A0041EB0B01BDE8F04D00F07DB934
:1007800070B521F0004303430CD0C1F30A55002497
:10079000D5EB040564EB0403D617AD1AB34102DBB5
:1007A0000020014670BD201841EB025170BD962318
:1007B0000022114600F033B920F00040C10DC0F313
:1007C000160040F400007F2901DA002070479629C6
:1007D00003DCC1F19601C8407047963988407047E4
:1007E000C1F30A5210B5C1F3130140F2FF3341F4D3
:1007F00080119A4201DA002010BD40F233439A4240
:10080000A2F2334203DC5242FFF7FCFC10BD9040E1
:1008100010BD00F0004230F000400AD0C10D01F5DB
:100820006071C0F3160042EA0151C208400711434B
:10083000704700200146704730B5041E71F1000476
:1008400004DB4FF00044404264EB0101141E73F1DD
:10085000000405DB1C464FF00043524263EB0403E7
:10086000994208BF904230BD01F0004330B421F0FE
:10087000004150EA010206D00A0DA2F56072C1F3F0
:100880001301002A02DC30BC00207047440F44EA08
:10089000C104C100E01830BC00EBC25000F0B6B893
:1008A00030B50B46014600202022012409E021FA40
:1008B00002F59D4205D303FA02F5491B04FA02F53D
:1008C0002844151EA2F10102F1DC30BD2DE9F05FD4
:1008D0000546002092469B468846064681464024AF
:1008E0001BE02846414647462246FFF78BFC53460D
:1008F0005A46C01A914110D311461846224600F0BC
:1009000016F82D1A67EB01084F46224601200021F8
:1009100000F00DF817EB00094E41201EA4F1010470
:10092000DFDC484631462A464346BDE8F09F202A90
:1009300004DB203A00FA02F1002070479140C2F136
:10094000200320FA03F3194390407047202A06DB66
:10095000CB17203A41FA02F043EAE07306E041FA8D
:1009600002F3D040C2F1200291400843194670477B
:100970000FB4002300B589B00CA900910B996FF05A
:100980000042CB601E4B06931E4B07930423CDE918
:1009900001321D4A089202466B46002000F0F8F929
:1009A00009B05DF814FB70B586B006464FF0FF3015
:1009B0000091CDE90101002015460C460490324615
:1009C000694604A8FFF7D4FF02460498211825B110
:1009D00008B1084600E020462860049800280DD0A1
:1009E000002A02DD0098884208D0081B0094CDE957
:1009F00001043246694604A8FFF7BAFF06B070BD8D
:100A0000C90F0008E70F00085D0C00080029A8BF07
:100A10007047401C490008BF20F00100704710B427
:100A2000B0FA80FC00FA0CF050EA010404BF10BCDC
:100A3000704749B1CCF1200421FA04F411FA0CF109
:100A400018BF012121430843A3EB0C01CB1D4FEA42
:100A500000614FEA102042BF002010BC704700EB3D
:100A6000C35010440029A4BF10BC7047401C49006B
:100A700008BF20F0010010BC704710B5141E73F1C0
:100A8000000408DA401C41F1000192185B411A434E
:100A900001D120F0010010BD2DE9F04D92469B469A
:100AA00011B1B1FA81F202E0B0FA80F22032904640
:100AB000FFF73DFF04460F4640EA0A0041EA0B01FA
:100AC00053465A46084313D0114653EA010019D041
:100AD000C8F140025046FFF795FB05460E465046CA
:100AE00059464246FFF723FF084305D0012004E0A2
:100AF00020463946BDE8F08D0020054346EAE07601
:100B00002C4337430A986305E40AA0EB080000224F
:100B1000FD0A44EA47540A3002D500200146E9E7BD
:100B2000010510196941DDE9084500196941BDE871
:100B3000F04DA2E72DE9F04D00231A461B1A8A4119
:100B400003DB00200146BDE8F08DC1F30A52C1F37A
:100B5000130141F480154FF0000BD10702D10018AA
:100B60006D41521E0027044640F2FF11384601EB4A
:100B7000620A3E468046024600204FF48011FFF78D
:100B800041FBC2197141BB1846EB0100B4EB030CE9
:100B900075EB000C04D3E41A65EB000517460E460E
:100BA000241908F101006D4180463428E3DDF9196C
:100BB00046EB0600091BA84103D24FF0FF32134653
:100BC00001E0002213461BEB070046EB0A51BDE88B
:100BD000F04DFFF752BFC1F30A52C1F3130140F2C7
:100BE000FF3341F480119A4202DA00200146704737
:100BF00040F233439A42A2F2334202DC5242FFF700
:100C000001BBFFF794BE000030B5041E71F1000473
:100C100004DB4FF00044404264EB0101141E73F109
:100C2000000405DB1C464FF00043524263EB040313
:100C30008B4208BF824230BD064C074D06E0E0689B
:100C400040F0010394E8070098471034AC42F6D313
:100C5000FFF772FA8C810008AC810008C0B24FF433
:100C6000F05100F00FBA00002DE9FF4F087883B073
:100C70009946FF2805D0491C2D2804D000240020C7
:100C800008E000200BE00124F9E700EB800003EB13
:100C90004000491C0B78FF2BF7D104B140420023E0
:100CA0000293147819461D462D2C01D02B2C04D10B
:100CB000521C2D2C13D000240294AA461478FF2C29
:100CC0000FD00A25A3FB057801FB05814FF0000C2E
:100CD00003FB0C11521CE3194AEB0101EEE701245E
:100CE000EAE7814453EA010002D019F5C87F06DA29
:100CF00003980021C0E9001107B0BDE8F08F00257E
:100D0000AE4E2F46DFF8B882184600F0CFF9CDE995
:100D10000001B9F1000002DAC9F1000400E0044664
:100D20000023A74A1AEB030B42EB045A12E0E00738
:100D300007D02A46334638464146FFF740FC07466F
:100D400088462A46334610461946FFF738FC0546C2
:100D50000E466410002CEAD1DDE90001B9F1000F64
:100D60005A46534606DAFFF79CFC3A464346FFF7DD
:100D700098FC05E0FFF723FC3A464346FFF71FFCCB
:100D8000029A0AB181F00041039AC2E90001B3E777
:100D90002DE9FF4F1F468DB0D7E901464FF0FF38D0
:100DA0002E2045464FF000090B90B9696D1C0E9836
:100DB0008847396A824688470028F6D1BAF1FF3F52
:100DC0000AD024F4D064002E11DDBAF12B0F08D024
:100DD000BAF12D0F0BD102E0404611B08DE744F47B
:100DE0008064B9696D1C0E9888478246761E6946F4
:100DF000600501D52D2000E02B208DF8000001F1C9
:100E0000010B0DF1200809E0B9696D1C0E988847A7
:100E100082460F9844F40074761E0560002E02DDB1
:100E2000BAF1300FF0D00B998A453ED144F08004DE
:100E300006E00F99681CA9F1010944F400740860E8
:100E4000B9696D1C761E0E98884782463028F0D00E
:100E50002BE00B998A4505D1200603D444F0800489
:100E6000761E18E0504603F0D3FE08B30DF11301CF
:100E7000761E44F400748B4508D2AAF130000BF8BA
:100E8000010B200607D5A9F1010003E0200602D4DA
:100E900009F101008146A00502D50F99681C086080
:100EA000B9696D1C0E9888478246002ED1DC53E04C
:100EB000002E51DDBAF1650F02D0BAF1450F4BD1CA
:100EC000A00549D5B9696D1C24F44074761E0E98AE
:100ED00088478246002E0CDD2B2804D0BAF12D0F56
:100EE00007D144F48074B9696D1C0E988847824616
:100EF000761EE00501D52D2100E02B2108F8011B0D
:100F0000CDF82C8021E00DF12901761E44F4007407
:100F100088450CD2AAF1300010F0FF0088F80000DC
:100F200002D10B99884509D908F1010806E0E005CE
:100F300001D5244801E042F20F708146B9696D1C69
:100F40000E98884782460F980560002E04DD5046B3
:100F500003F05EFE0028D6D1F9690E988847FF207D
:100F60008BF8000088F800000020069007904B46A0
:100F70006A4608A906A8FFF777FEA00502D46FF01D
:100F800001002AE714F0240F0AD0E00714D1DDE9AC
:100F900006123868031D3B600068C0E900120BE0D0
:100FA000DDE90601FFF760FC0146E00704D138687F
:100FB000021D3A600068016028460EE700001440F8
:100FC0000000F03FF1D8FFFF426842B1016811F81C
:100FD000013B23B1521EC0E900121846704701219F
:100FE000C160881E704742685AB1C368016843B93E
:100FF00083688B4205D0491E521CC0E900120020B4
:1010000070474FF0FF3070470EB5C10F80EAE070B7
:101010000844CA07002140F233438DE80E000A4617
:101020000B46FFF739FD03B000BD0EB540F233416A
:1010300002910021CDE900110A460B46FFF72CFD75
:1010400003B000BD70B5C1F30A5201F000450024A1
:10105000C1F3130140F2FF3341F480119A4201DAE7
:10106000002070BD40F233439A42A2F2334203DCC7
:101070005242FFF7C7F800E090402C43F1D04042C5
:1010800070BD00007F2801D9002208E0064A02EB6B
:101090005002C007127800D1120902F00F0201209D
:1010A0009040084070470000408100080EB540F2B3
:1010B000334202920022CDE900221346FFF7ECFCF6
:1010C00003B000BDFEE7000000B58DB00020019028
:1010D00000901349019A0A40019200EA010200922D
:1010E0009DF8001041F004018DF800100121CDE9B8
:1010F0000701019A09910292009A0392019A0492BF
:10110000009ACDE905200E20CDE90A1002A9054874
:1011100000F052F9002801D000F0D2F80DB000BD67
:101120000700E0FF3808002010B502F0A7FBFFF72A
:10113000CBFF044800F08EFABDE8104002210148C0
:1011400000F0C0B8380800202DE9FF4F81B00E46EE
:101150000E9CFFF75EFB8A46054604F01DFCFFF778
:1011600083FB20603046FFF754FB8B46064604F0B5
:1011700013FC074688462846514605F0DBFE81F001
:1011800000413A464346FFF71AFAFFF76DFB6060ED
:101190003046594605F0CEFE074688462846514659
:1011A00005F0C8FE3A464346FFF709FAFFF75CFB35
:1011B000A0602846514604F0EFFB8146884603981C
:1011C000FFF727FB07464A4643460091FFF7F7F92A
:1011D000FFF74AFBE0602846514605F0ABFEFFF7FB
:1011E00043FB20613046594604F0D6FB80468946D1
:1011F0002846514604F0D0FB42464B46FFF7DFF944
:10120000FFF732FB60613046594605F093FE804699
:1012100089462846514604F0BFFB81F00041424612
:101220004B46FFF7CCF9FFF71FFBA061284651465C
:1012300005F080FE02460B4638460099FFF7BFF9DD
:10124000FFF712FB0025C4E907053046594605F0B3
:1012500071FEFFF709FB60623046594604F09CFBC3
:10126000FFF702FBA0620498C4E90B054FF07E5023
:101270006563C4E90E5005B0BDE8F08F014800F089
:10128000D1BA00007C090020014800F0CBBA000070
:101290003809002030B590F840500124AC40C56BAF
:1012A0006C60046863604368102B036803D0996026
:1012B0000068C26030BD9A600068C16030BD704790
:1012C00072B6FEE790F82020012A07D0022A05D046
:1012D000416A41F4802141620120704700684269FF
:1012E0000A43426100207047F0B590F8205004682E
:1012F000A468012D05D0022D03D0416A41F480215C
:1013000057E014F0406F01D1E5004FD5C4F30164FC
:101310000125A5401D608D684FF4C0739DB1CE6856
:1013200035434E6845EAC605066803EB0417F551D8
:101330004FF4C275076805EB04150E697E51097DEF
:10134000012905D009E00E88CD6845EA4655EBE74E
:1013500001684E5946F480764E511179D579567907
:1013600041EA056195792D0445EA062529434FF4A4
:10137000C676056806EB0416A9511178D57841EABE
:101380000561957852782D0445EA022211434FF405
:10139000C475026805EB04155151006803EB041194
:1013A000425842F0010242500020F0BD416A41F42F
:1013B000001141620120F0BD10B590F820300268A4
:1013C000012B07D0022B05D0416A41F480214162F4
:1013D000012010BDD2F8000240F00100C2F8000266
:1013E000087D00F01F0301209840D2F81C3283438F
:1013F000C2F81C32CB69B3B9D2F80C328343C2F8BD
:101400000C328C894B6864F31F434C6902EBC404B3
:10141000C4F840320C890B6864F31F434C6902EB3B
:10142000C404C4F84432CB69012B16D1D2F80C3273
:101430000343C2F80C320C884B6864F31F434C69B9
:1014400002EBC404C4F840320C89CB6864F31F4338
:101450004C6902EBC404C4F844328B69002BD2F807
:1014600004320FD053EA0003C2F804320B69002B98
:10147000D2F8143208D00343C2F81432096A0129A1
:1014800004D008E08343EFE78343F5E7D2F81C126A
:101490000143C2F81C12D2F8000220F00100C2F889
:1014A0000002002010BD406A704770B5040003D0F0
:1014B00094F8200010B104E0012070BD204600F037
:1014C00081F82068016841F00101016000F046FCEC
:1014D0000546052604E000F041FC401B0A2811D80F
:1014E00020684068C007F6D02068016821F002013A
:1014F000016000F033FC05460BE000F02FFC401BC0
:101500000A2806D9606A40F40030606284F82060DE
:10151000D2E7206840688007EFD4207E0128206849
:1015200001683DD021F080010160607E01282068C3
:10153000016838D021F040010160A07E01282068B8
:10154000016833D021F020010160E07E012820688D
:1015500001682ED041F010010160207F0128206831
:10156000016829D021F008010160607F012820680E
:10157000016824D021F004010160D4E9020108438C
:10158000D4E90412114308436168491E08432168E5
:10159000C86100206062012084F82000002070BD36
:1015A00041F08001C0E741F04001C5E741F0200172
:1015B000CAE721F01001CFE741F00801D4E741F07C
:1015C0000401D9E710B586B0002100910191029184
:1015D000039100681349884222D11348C16941F040
:1015E0000071C161C16901F000710491816941F02C
:1015F0000401816180690D4C00F0040004904FF4F7
:10160000006000906946204600F0A6FAA014009001
:1016100002200190032003906946204600F09CFAC6
:1016200006B010BD006400400010024000080140F8
:1016300090F820200021012A08D0022A06D0416A11
:1016400041F4802141620121084670470022426234
:10165000FAE7000070B5044690F82000012804D095
:10166000606A40F40020606218E0022084F82000E4
:101670002068016821F00101016000F06FFB054660
:101680000EE000BF00F06AFB401B0A2808D9606A20
:1016900040F400306062052084F82000012070BD15
:1016A00020684068C007EDD1606270BD10B590F849
:1016B00021100022022905D00421816380F8202016
:1016C000012010BD01680B6823F00E030B60016858
:1016D0000B6823F001030B6090F84030C46B0121CC
:1016E00001FA03F3636080F8211080F8202010468F
:1016F00010BD00002DE9F05F90F8211000240229B0
:1017000003D004218163012485E001680A6822F086
:101710000E020A6001680A6822F001020A603F4E68
:101720003E4FB215DFF8F4C0DFF8F090DFF8ECA020
:10173000DFF8E8B0DFF8E4E00168783F1301150254
:10174000ACF1640CA9F15009AAF13C0AABF1280BE9
:10175000AEF1140E4FF48018B14227D9B9420ED021
:10176000614512D049451DD0514518D0594518D072
:10177000714501D1424615E0294EB14201D1012205
:1017800010E0274E1436B14201D110220AE0244E57
:101790002836B14206D0224A3C32914201D11A4643
:1017A00000E02A461E49091F0A602BE0B94213D007
:1017B000614517D0494522D051451DD059451DD00E
:1017C000714501D142461AE0B14202D14FF0807218
:1017D00015E0134EB14201D1012210E0104E143633
:1017E000B14201D110220AE00D4E2836B14206D096
:1017F0000B4A3C32914201D11A4600E02A46074981
:1018000080394A60012180F82110002180F82010E1
:10181000416B01B188472046BDE8F09F800002403F
:10182000080402402DE9F05FC16B0A6801680B688B
:10183000046C4FF0040808FA04F8844D844E854F78
:10184000DFF814C2DFF81492DFF814A2DFF814B244
:10185000DFF814E218EA020F65D05FEA437862D538
:101860000A68920603D40A6822F004020A60DFF8CC
:10187000F0814FF48062016808F11408130114022A
:10188000414524D9A9420DD0B1420FD0B9421AD056
:10189000614515D0494515D0514501D1120312E0DB
:1018A000594501D104220EE0714501D140220AE0E0
:1018B0006D4D1435A94206D06B4A2832914201D1B0
:1018C0001A4600E022466749091F0A6029E0A9423A
:1018D00013D0B14215D0B94220D061451BD0494543
:1018E0001BD0514502D14FF4800217E0414502D18F
:1018F0004FF0806212E0594501D104220EE071459B
:1019000001D140220AE0584D1435A94206D0564A6A
:101910002832914201D11A4600E022464B4908394B
:101920004A60C16A71E04FF0020808FA04F818EA48
:10193000020F70D05FEA83786DD50A68920606D4EC
:101940000A6822F00A020A60012180F82110DFF8FB
:1019500010814FF40072016808F114081301140299
:10196000414524D9A9420DD0B1420FD0B9421AD075
:10197000614515D0494515D0514501D1120312E0FA
:10198000594501D102220EE0714501D120220AE021
:10199000354D1435A94206D0334A2832914201D13F
:1019A0001A4600E022462F49091F0A6029E0A94291
:1019B00013D0B14215D0B94220D061451BD0494562
:1019C0001BD0514502D14FF4001217E0414502D11E
:1019D0004FF0007212E0594501D102220EE071452C
:1019E00001D120220AE0204D1435A94206D01E4A1A
:1019F0002832914201D11A4600E0224613490839A3
:101A00004A60002180F82010816A00291CD0BDE8BE
:101A1000F05F0847FFE70825A540154214D01A07D4
:101A200012D50A6822F00E020A6090F84020C36BBB
:101A3000012101FA02F25A60816380F8211000212D
:101A400080F82010016BE0E7BDE8F09F080002403D
:101A50001C00024030000240440002405800024096
:101A60006C000240080402401C04024030B560B122
:101A70001A4B026814219A4209D2194B1344B3FB42
:101A8000F1F18900016417490AE0012030BD134BD0
:101A90005B421344B3FBF1F1890001640F4908393B
:101AA000C163022180F82110136843F6F0718B4363
:101AB000F0E901142143D0E902452C432143046994
:101AC0002143446921438469214319431160002162
:101AD0004163012242770177084630BD0804024085
:101AE000F8FFFDBF0000024070B5044690F82000EA
:101AF000002501280CD0012084F8200094F82160F2
:101B00000020012E06D084F820000225284670BD52
:101B1000022070BD022684F82160A0632068066858
:101B200026F0010606602046FFF7B4FBE06A0028B5
:101B30002068016802D041F00E0106E021F00401A6
:101B400001602068016841F00A01016020680168B5
:101B500041F001010160D9E72DE9F84FDFF8C891A4
:101B60000024A9F1040B23460F2709F1040AABF165
:101B7000040ED1E00125A54006EA0502AA4276D16D
:101B8000DFF8A8C14E68A6EB0C0866452BD00DDC2B
:101B9000032E34D005DC36B3012E19D0022E2FD1FE
:101BA0001BE0112E16D0122E2AD119E0B8F5881F8D
:101BB00019D006DCB8F5803F15D0B8F5801F1FD1CD
:101BC00011E0B8F5001F0ED0B8F5041F18D10AE0D7
:101BD000CB6815E0CB681B1D12E0CB6808330FE023
:101BE000CB680C330CE08B682BB1012B4FF0080352
:101BF00003D0456104E0042302E0056100E0002316
:101C0000FF2A01D8064601E000F104064FEA8405E8
:101C100001D9A5F12005D6F8008007FA05FC28EACD
:101C20000C0803FA05F548EA0508C6F800804D6877
:101C3000ED0070D53E4DAE6946F00106AE61AD696E
:101C400024F0030605F0010500953A4D06EB050C5E
:101C5000DCF80850A607360F07FA06F825EA08054B
:101C6000DFF8D480404503D14FF0000825E052E072
:101C7000DFF8C880404502D14FF001081DE0DFF8D1
:101C8000C080404502D14FF0020816E0DFF8B48072
:101C9000404502D14FF003080FE0DFF8AC8040452B
:101CA00002D14FF0040808E0DFF8A080404502D1DF
:101CB0004FF0050801E04FF0060808FA06F848EA78
:101CC0000508CCF808804D68D9F80060ED024D4653
:101CD00001D5164300E096432E604D68DAF80060A7
:101CE000AD02554601D5164300E096432E604D687F
:101CF000DBF80060AD035D4601D5164300E0964376
:101D00002E604D68DEF80060ED03754601D5164380
:101D100000E096432E60641C0A681646E2407FF499
:101D200029AFBDE8F88F0000080401400000111041
:101D3000001002400000014000080140000C01407A
:101D4000001001400014014000180140001C014037
:101D50000AB1016170470904FBE70000014880688F
:101D60007047000048000020024881680278114452
:101D70008160704748000020074810B5016841F0B5
:101D800010010160032000F0A7F80F2000F006F812
:101D900000F050F8002010BD0020024030B505468C
:101DA0001F4887B0C16941F02001C161C06906A91F
:101DB00000F02000009001A800F036F90498B0B1BE
:101DC00000F052F940001749174AB0FBF1F11748EB
:101DD000491E0260416040F2E7320021C0E9032160
:101DE0008160816100F056FB040003D015E000F033
:101DF0003BF9E8E70D4800F0ADFB04000DD13720BA
:101E000000F03CF8102D07D200222946372000F0C0
:101E100043F80748056000E0012407B0204630BDC4
:101E20000010024040420F0000140040640A0020ED
:101E30004C0000200F4808B5816941F00101816123
:101E4000816901F001010091C16941F08051C161D6
:101E5000C069002200F0805000900F21901E00F019
:101E60001BF80548416821F0E06141F000714160D4
:101E700008BD00000010024000000140002809DBFE
:101E800000F01F02012191404009800000F1E02094
:101E9000C0F8001170470000F0B40E4B1B680C46F0
:101EA000C3F30223C3F10705042D00D90425191D2E
:101EB000072901D2002300E0DB1E012606FA05F106
:101EC000491E214099409E40761E16403143F0BC89
:101ED00002F08EBA0CED00E0064900F00702086837
:101EE0004FF6FF03184040EA0220034A10430860FF
:101EF000704700000CED00E00000FA052DE9F04706
:101F00000F46050061D0434E306800F00700B8422C
:101F100009D2306820F0070038433060306800F0A4
:101F20000700B84251D128683B4C810712D54007C1
:101F300003D5606840F4E06060602878000703D54E
:101F4000606840F4605060606068A96820F0F0004C
:101F5000084360602878C00728D06868012810D03E
:101F60002168022810D0890700292EDA616821F043
:101F7000030101436160FFF7F1FE804641F28839B9
:101F80000DE021688903EFE78901EDE7FFF7E6FE41
:101F9000A0EB0801494502D90320BDE8F08760683D
:101FA000696800F00C00B0EB810FEFD1306800F0F1
:101FB0000700B8420BD9306820F007003843306082
:101FC000306800F00700B84201D00120E5E728782A
:101FD000400705D56068E96820F4E0600843606068
:101FE0002878000706D56068296920F4605040EA27
:101FF000C100606000F058F86168084AC1F303113D
:10200000515CC8400649086006480068FFF7C6FEF4
:102010000020C2E70020024000100240167F0008A6
:10202000540000204C0000200F2202600C4A53682C
:1020300003F003034360536803F0F00383605368C5
:1020400003F4E063C36052684FF4E06303EAD20232
:1020500002610448006800F0070008607047000053
:102060000010024000200240044805490068496809
:10207000044AC1F30221515CC8407047540000205B
:1020800000100240267F000804480549006849689E
:10209000044AC1F3C221515CC8407047540000207B
:1020A00000100240267F00080E4A51680E4801F0D9
:1020B0000C03042B11D0082B0FD10C48C1F3834320
:1020C000C903C05C0AD55168084AC1F34041921E59
:1020D000515C054A5043B0FBF1F070470449484356
:1020E000704700000010024000127A00067F0008CE
:1020F00000093D002DE9F84F040070D02078C04D54
:10210000C00749D06868C0F38100012807D068681B
:10211000C0F38100022809D16868C00306D5286889
:10212000800339D560680028E7D035E06068B0F5F5
:10213000803F0BD010B1B0F5A02F11D0286820F44B
:1021400080302860286820F4802002E0286840F46D
:1021500080302860606890B1FFF700FE06460AE014
:10216000286840F480202860F0E700BFFFF7F6FD04
:10217000801B642873D828688003F7D50CE0FFF72C
:10218000EDFD064605E000BFFFF7E8FD801B642873
:10219000F0D828688003F7D420789A4E80074FF053
:1021A00001094FF0000839D5686810F00C0F07D00E
:1021B0006868C0F38100022809D16868C00306D4AA
:1021C0002868800714D52069012808D110E020690B
:1021D000B0B1C6F80090FFF7C1FD074605E00AE17F
:1021E000FFF7BCFDC01B0228C4D828688007F7D5BC
:1021F0002868616920F0F80040EAC10028600DE01D
:10220000C6F80080FFF7AAFD074604E0FFF7A6FD29
:10221000C01B022823D828688007F7D4207800073D
:102220002CD57948A169D9B1C0F80090FFF796FD87
:10223000074604E0FFF792FDC01B02280FD8686A2A
:102240008007F7D571484FF4FA510068B0FBF1F000
:10225000009000BF0098411E0091FAD20EE080E08D
:10226000C0F80080FFF77AFD074604E0FFF776FD2F
:10227000C01B022875D8686A8007F7D42078400709
:1022800060D5E8690027C00008D4E86940F08050B4
:10229000E861E869012700F0805000905C4801681F
:1022A000C90513D40168834641F480710160FFF7CA
:1022B00055FD824606E000BFFFF750FDA0EB0A0087
:1022C00064284ED8DBF80000C005F5D5E068012889
:1022D0000AD008B1052813D0286A20F0010028622E
:1022E000286A20F0040002E0286A40F00100286219
:1022F000E06841F2883B98B1FFF730FD82460BE081
:10230000286A40F004002862EEE700BFFFF726FDD0
:10231000A0EB0A0159455AD8286A8007F6D50CE087
:10232000FFF71CFD824605E0FFF718FDA0EB0A0150
:1023300059454CD8286A8007F6D41FB1E86920F0C7
:102340008050E861E06988B36968C1F381010229BE
:1023500044D00228C6F8608004D0FFF7FFFC044692
:1023600038E034E0FFF7FAFC074604E0FFF7F6FC3C
:10237000C01B02282BD828688001F7D4206AB0F54A
:10238000803F05D16868A16820F400300843686088
:10239000D4E908010843696821F4741108436860AE
:1023A000C6F86090FFF7DAFC044606E025E000BFBF
:1023B000FFF7D4FC001B022809D828688001F7D554
:1023C0001BE000BFFFF7CAFC001B022802D9032054
:1023D000BDE8F88F28688001F4D40EE00128F7D01A
:1023E0006868226A00F48031914204D1616A00F485
:1023F0007010884201D00120EAE70020E8E70000E1
:10240000001002400000424280044242540000207A
:10241000007000407047704770B590F83C20012A6A
:102420002CD0012480F83C40022280F83D20036833
:102430005A689D6822F070060A6832435A60104B51
:1024400002689A420ED00F4B9A420BD0B2F1804FE5
:1024500008D00D4B9A4205D00C4B9A4202D00C4B3F
:102460009A4204D1496825F080031943916080F8AD
:102470003D40002180F83C10084670BD022070BD30
:10248000002C0140003401400004004000080040DE
:10249000000C004010B5040003D094F83D0010B1CA
:1024A00007E0012010BD002084F83C00204600F029
:1024B0001FF8022084F83D00211D206801F026FC51
:1024C000012084F8460084F83E0084F83F0084F838
:1024D000400084F8410084F8420084F8430084F806
:1024E000440084F8450084F83D00002010BD000041
:1024F00008B5154A0168154891420ED1C16941F0ED
:102500000201C161C069002200F0020000900521B3
:102510001D20FFF7C1FC1D2010E00D4A914211D192
:10252000C16941F00401C161C069002200F00400EA
:10253000009005211E20FFF7AFFC1E20BDE80840DB
:10254000FFF79CBC08BD00000004004000100240E2
:102550000008004090F83D10012901D0012070478B
:10256000022180F83D100168CA6842F00102CA6089
:1025700000680E4988420ED00D4988420BD0B0F158
:10258000804F08D00B49884205D00B49884202D0C1
:102590000A49884204D1816801F00701062903D065
:1025A000016841F00101016000207047002C0140EA
:1025B000003401400004004000080040000C0040CE
:1025C00070B5044690F83C000025012817D001267C
:1025D00084F83C60022084F83D002068826822F084
:1025E000770222F47F4282600868502838D00DDCE0
:1025F00020284FD005DC90B3102811D14AE00220EA
:1026000070BD302846D040280AD13BE060282FD04A
:1026100070280DD0B0F5805F03D0B0F5005F12D008
:10262000012584F83D60002084F83C00284670BDF8
:10263000CB68D1E90121206801F0C3FB20688168E3
:1026400041F0770109E0CB68D1E90121206801F070
:10265000B8FB2068816841F480418160E1E719E0BE
:10266000CA684968206801F081FC5021206806E0B2
:10267000CA684968206801F08AFC6021206801F07E
:10268000AAFBCEE7CA684968206801F06FFC4021C8
:102690002068F4E7226801461046F0E770472DE90C
:1026A000F04104460068C66805694FF00007A907B5
:1026B00013D5B10711D5F91E0161012020772068DB
:1026C00080698007204602D0FFF7E8FF04E000F0B1
:1026D000C7F8204600F05AF92777680716D5700723
:1026E00014D521686FF0040008610220207720686B
:1026F000806910F4407F204602D0FFF7CFFF04E04E
:1027000000F0AEF8204600F041F92777280715D5EC
:10271000300713D521686FF0080008610420207786
:102720002068C0698007204602D0FFF7B7FF04E0A9
:1027300000F096F8204600F029F92777E80616D52C
:10274000F00614D521686FF010000861082020778A
:102750002068C06910F4407F204602D0FFF79EFF3A
:1027600004E000F07DF8204600F010F92777E80734
:1027700008D0F00706D021686FF0010008612046FC
:1027800000F00EFA280608D5300606D521686FF04D
:10279000800008612046FFF73DFE680608D57006F8
:1027A00006D521686FF040000861204600F002FA6B
:1027B000A8060AD5B00608D521686FF02000086188
:1027C0002046BDE8F041FFF726BEBDE8F0810000DD
:1027D00000B585B0002100910191029103911A4B3F
:1027E00002681A4802219A4211D1826942F0040219
:1027F00082618069039100F004000490C020CDE95B
:10280000000169461248FFF7A7F905B000BD114B5A
:102810009A42FAD1826942F0200282618069039172
:1028200000F0200004904FF44050CDE900016946CB
:102830000948FFF791F90948416841F0E06141F426
:1028400080514160E1E700000004004000100240B8
:102850000008014000080040001401400000014051
:10286000704770B5044690F83C0000260D460128DC
:102870000FD0012084F83C006AB1042A1DD0082A38
:102880002FD00C2A3FD00126002084F83C0030468F
:1028900070BD022070BD206801F0A6FA2068816931
:1028A00041F0080181612068816921F004018161A2
:1028B000206881692A69114311E0206801F0C4FA97
:1028C0002068816941F4006181612068816921F497
:1028D00080618161206881692A6941EA0221816100
:1028E000D2E7206801F0E6FA2068C16941F00801EA
:1028F000C1612068C16921F00401C1612068C1691A
:102900002A69114311E0206801F008FB2068C169C1
:1029100041F40061C1612068C16921F48061C16135
:102920002068C1692A6941EA0221C161ACE710B59A
:10293000040003D094F83D0010B107E0012010BD61
:10294000002084F83C00204600F01EF8022084F8A5
:102950003D00211D206801F0D9F9012084F84600CE
:1029600084F83E0084F83F0084F8400084F8410079
:1029700084F8420084F8430084F8440084F8450059
:1029800084F83D00002010BD70470000134A016824
:10299000914210D1007F012805D002280AD11048A9
:1029A0000168104A12E010480168104A0EE0016800
:1029B000491C016070470E4A9142FBD1007F0128FB
:1029C00008D00228F6D10B4801680B4A12689142E0
:1029D000EDD3704709480168094AF7E70004004051
:1029E0000C0000201C00002008000020180000201F
:1029F00000080040140000202400002010000020E7
:102A00002000002030B500250446022249B10429E7
:102A100012D0082946D094F8410001284DD0012059
:102A200030BD94F83E000128F9D184F83E2020689A
:102A3000C26842F0020209E094F83F000128EED19A
:102A400084F83F202068C26842F00402C26001227C
:102A5000206801F0A9F91E4920681E4A884201D069
:102A6000904203D1436C43F400434364206888429E
:102A70000DD090420BD0B0F1804F08D0164988425B
:102A800005D01649884202D01549884204D1816890
:102A900001F00701062903D0016841F0010101603E
:102AA000284630BD94F840000128B8D184F8402071
:102AB0002068C26842F00802C8E784F841200C2967
:102AC00001D00125ECE72068C26842F01002BDE7A2
:102AD000002C014000340140000400400008004088
:102AE000000C004070B50D0004464FF0000607D002
:102AF000042D0AD0082D0DD00C2D10D001263FE05A
:102B00002068C16821F002010DE02068C16821F051
:102B1000040108E02068C16821F0080103E0206892
:102B2000C16821F01001C16000222946206801F02F
:102B30003BF9194B41F2111120688A10984202D0DA
:102B4000164B984209D1036A0B4206D1036A13421D
:102B500003D1436C23F4004343642068036A0B42AF
:102B600006D1016A114203D1016821F0010101601F
:102B700001203DB1042D08D0082D09D084F8410072
:102B8000304670BD84F83E00FAE784F83F00F7E76E
:102B900084F84000F4E70000002C014000340140BC
:102BA00000680349884201D1FFF7DEB87047000092
:102BB00000140040704738B5044690F842002028C1
:102BC00001D0022038BD51B14AB10120206300205C
:102BD0006063204601F05EFB216B012901D00120DA
:102BE00038BD21680A684968009121680C3151E8B4
:102BF000002F42F0100241E80023002BF5D138BD30
:102C000010B50A4803F0B6FB0948084900231A46E4
:102C10001839006804F0CAFD064804490089BDE877
:102C2000104082B2A1F58870FFF7C5BF000A0020EE
:102C3000040000203C00002070470000F8B5016847
:102C400004460868CA684B6910F00F0F4FF0000582
:102C500059D003F0010602F49077374365D0C107DD
:102C600005D0D10503D5616C41F0010161644107D4
:102C700005D5D90703D0616C41F002016164810779
:102C800005D5D90703D0616C41F0040161640107E7
:102C900007D502F02001314303D0616C41F00801F7
:102CA0006164616C00293AD0800604D5900602D593
:102CB000204601F032FA20684069616CC0F3801050
:102CC000090700D460B3204601F0F2F9206840699A
:102CD000400621D52068143050E8001F21F0400143
:102CE00040E80012002AF5D1E06BA8B16D494163BC
:102CF000E06BFEF7FFFC002811D0E06B416B01B0E8
:102D0000BDE8F040084783060FD593060DD5204651
:102D1000BDE8F84001F001BA2046FFF78DFFF8BD8D
:102D20002046FFF789FF6564F8BD266B2023012E3E
:102D30007CD1C6067AD5D60678D508684868009052
:102D400048694FF00206400640D5E16B08684068CC
:102D50000004000CE8D0A28D8242E5D9E0858869A4
:102D600020282DD020680C3050E8001F21F48071FD
:102D700040E80012002AF5D12068143050E8001F06
:102D800021F0010140E80012002AF5D1206814303A
:102D900050E8001F21F0400140E80012002AF5D160
:102DA00084F84230256320680C3050E8001F21F081
:102DB000100140E80012002AF5D1E06BFEF776FC26
:102DC0006663A08DE18D401A81B22AE0A08DE18D6D
:102DD000401A81B2E08D0028A6D00029A4D0226834
:102DE0000C3252E8000F20F4907042E80007002FE8
:102DF000F5D12068143050E8002F22F0010240E89D
:102E00000027002FF5D184F84230256320680C306C
:102E100050E8002F22F0100240E80023002BF5D1EB
:102E200066632046FFF7ECFEF8BDFFE705062BD5ED
:102E3000150629D594F841002128F5D1A068B0F5F0
:102E4000805F01D12069B0B1206A411C21622168F4
:102E500000784860E08C401E0004000CE084E3D160
:102E60002068C16821F08001C1602068C16841F01C
:102E70004001C160D8E7206A0088C0F308004860BC
:102E8000206A801C2062E5E74006CDD55006CBD5F0
:102E9000CA68204622F04002CA6084F8413000F03F
:102EA00003F9C1E7B33F000870B5040004D094F8FB
:102EB0004100002510B106E0012070BD84F84050AB
:102EC000204600F023F8242084F841002068C168DF
:102ED00021F40051C160204601F080F920680169A9
:102EE00021F4904101612068416921F02A0141618A
:102EF0002068C16841F40051C1606564202084F8F5
:102F0000410084F842006563002070BDF0B585B0D3
:102F100000240646009401940294039400682D490D
:102F2000884254D12C48816941F480418161816992
:102F300001F480410491816941F00401816180695B
:102F4000264D00F0040004904FF400700090022021
:102F500001900320039069462846FEF7FDFD2815E1
:102F6000CDE90004694628460294FEF7F5FD1D4DA3
:102F70001B488027C5E90004C5E902472C616C6144
:102F8000AC612846EC61FEF771FD08B1FEF798F9D7
:102F9000F5636E62134D12484435143801C5102094
:102FA00091C5104845F8104944306C61AC61EC6142
:102FB000FEF75CFD08B1FEF783F9B5630022052139
:102FC00025206E62FEF768FF2520FEF757FF05B04B
:102FD000F0BD000000380140001002400008014030
:102FE000580002403809002004480121416000894E
:102FF000034982B2A1F58870FFF7DDBD3C000020D7
:10300000000A002070472DE9F843044690F841007B
:10301000984616460D46202802D00220BDE8F883C7
:1030200085B17EB100206064212084F84100FEF764
:1030300095FEA6848146E684A0682027B0F5805FCF
:1030400002D003E00120E9E7206910B12E460025F7
:103050000EE000260CE08021204601F063F9A8B9BB
:10306000C6B116F8010B21684860E08C401EE08470
:10307000E08C4B464FF00002CDF800800028EAD1EA
:103080004FF04001204601F04DF940B184F8417005
:103090000320C3E735F8020BC0F30800E3E784F828
:1030A00041700020BAE70000014901200860704724
:1030B0003C000020FEE700002DE9F04F0446ADF291
:1030C000544D0D46C068FDF7A4FBFF4FFD4A3B463B
:1030D000FDF775FAFD4E00223346FDF7E2FAFDF7E3
:1030E000C3FBE0602069FDF794FBF64A3B46FDF721
:1030F00066FA00223346FDF7D4FAFDF7B5FB2061EE
:103100006069FDF786FBEF4A3B46FDF758FA00225F
:103110003346FDF7C6FAFDF7A7FB60611822EC49BC
:103120000DF20440FDF77EF8E94918221831FBA89A
:10313000FDF778F8E6491822303102A8FDF772F859
:10314000E3491822483108A8FDF76CF8E14E012246
:10315000334606210DF2044000F027FD33460122DC
:103160000621FBA800F021FD18210DF21C40FDF7FF
:1031700072F818210DF23440FDF76DF82EA90DF20A
:103180001C4003F047F93EA90DF2344003F042F928
:103190004EA9204603F03EF95EA92EA802F056FC87
:1031A0006EA93EA802F052FC04247EA8CDE900409E
:1031B000234622466EA94EA800F0C8FC0EA8CDE911
:1031C000004004231A467EA95EA800F0BFFC1099B7
:1031D0000D98FDF7D1F81199FDF7CBF80746149932
:1031E0000D98FDF7C9F81599FDF7C3F8044618992D
:1031F0000D98FDF7C1F81999FDF7BBF80A99064635
:103200000846FDF7B9F8814620462146FDF7B4F897
:10321000804638463946FDF7AFF84146F990FDF74C
:1032200053F883464946FDF7A1F8FDF7F2FA03F09B
:10323000D1FE814688460A98FDF7EBFA4A46434696
:1032400002F0C0FA824689463846FDF7E2FA804627
:103250000F462046FDF7DDFA42463B4602F0B2FA41
:1032600052464B46FDF7A5F9FDF7FEFA2860029895
:10327000FDF7CFFA0F460A9980460846FDF77CF81D
:1032800001465846CDF84CB4FDF770F8FDF7C1FA89
:1032900003F0A0FE42463B46FDF78BF90746884601
:1032A00030460899FDF762F8FDF7B3FA3A4643460F
:1032B000FDF7F7F902F076F9804689460298FDF7A6
:1032C000A8FA0F460A9982460846FDF755F80146C6
:1032D000DDF84C04FDF74AF8FDF79BFA03F07AFE9F
:1032E00052463B46FDF765F982468B460298FDF74C
:1032F00090FA00910A9907460846FDF73DF8014605
:10330000DDF84C04FDF732F8FDF783FA03F062FEB6
:103310003A46009BFDF74DF952465B46FDF74FF9E3
:1033200007468A4630460899FDF720F80146FDF722
:1033300023F8FDF76EFA53463A46FDF799F803F085
:1033400049FE07468A460398FDF763FA0122FDF716
:1033500017FA53463A46FDF732F98B460B998246E7
:103360000846FDF709F8049907460846FDF704F8F2
:103370003946FCF7A9FFFDF74CFA0746F091029891
:10338000FDF747FA00910A99EE900846FCF7F4FF22
:103390000146DDF84C04FCF7E9FFFDF73AFA03F0CB
:1033A00019FE009BEE9AFDF704F9CDE9EE010298B3
:1033B000FDF72FFA0091FA900A990846FCF7DCFF16
:1033C0000146DDF84C04FCF7D1FFFDF722FA03F0CB
:1033D00001FE009BFA9AFDF7ECF8DDE9EE23FDF71C
:1033E000EEF8EE91009030460899FCF7BFFF0146D9
:1033F000FCF7C2FF0399F4900846FCF7BDFFF4996F
:10340000FCF762FFFDF705FAEE9B009AFDF730F836
:103410003A46F09BFDF7CDF852465B46FDF741F981
:1034200001F082FF274A2C4BFDF7C6F842464B4677
:10343000FDF7BFF8FDF718FA686004990B98FCF7E0
:10344000CDFFFDF7E6F902F0ADF889460B9983460A
:103450000846FCF791FF049907460846FCF78CFFE5
:103460003946FCF731FFFDF7D4F903F0B3FD074609
:10347000884601210398FCF7EFFFFDF7CAF94346A0
:103480003A46FDF79CF8EE908A460298FDF7C1F99E
:1034900088460A9907460846FCF76EFF21460090C9
:1034A0000846FCF769FF0146F998FCF70DFFF69016
:1034B0000099FCF75BFFFDF7ACF903F08BFD3A4692
:1034C00043460BE04AD8124DFB210940008066407C
:1034D000887E000835FA8E3CFB21F93FFDF769F83C
:1034E000074600910298FDF794F90C460A99804628
:1034F0000846FCF741FF0146F698FCF737FFFDF759
:1035000088F903F067FD42462346FDF752F83A4634
:10351000009BFDF754F804460F4630460899FCF727
:1035200025FF0146FCF728FF0B9906460846FCF7E5
:1035300023FF0499F6900846FCF71EFF0399804686
:103540000846FCF719FF4146FCF7BEFEF699FCF76A
:10355000BBFE3146FCF70AFFFDF75BF922463B460E
:10356000FDF727F85346EE9AFDF79BF801F0DCFED5
:103570004C4A4D4BFDF720F85A464B46FDF719F8DB
:10358000FDF772F9A8602968DDF80404FCF79CFED9
:103590008EA90091089B029AFB99FDF7D5FD6968F9
:1035A000DDF80804FCF790FE9EA90091099B039AA0
:1035B000FC99FDF7C9FDA968DDF80C04FCF784FE51
:1035C000AEA900910A9B049AFD99FDF7BDFD042464
:1035D000BEA8CDE90040234622469EA98EA800F051
:1035E000B5FACEA8CDE9004004231A46AEA9BEA87C
:1035F00000F0ACFADEA9CEA802F028FA1EA8CDE9A8
:10360000004004231A460EA9DEA800F09FFA209875
:1036100080F00040FDF7FDF8064624980C4680F047
:103620000040FDF7F6F83246234602F0CBF8FDF7EE
:103630001BF9E8602898FDF7ECF80C46249906463B
:103640000846FCF799FE209907460846FCF794FEC9
:103650003946FCF739FEFDF7DCF803F0BBFC3246D7
:10366000234602F0AFF8FDF7FFF828612698FDF732
:10367000D0F8064627980C4680F00040FDF7C9F8C0
:103680003246234602F09EF8FDF7EEF86861074BDC
:1036900001220621284600F088FA0DF2544DBDE8BB
:1036A000F08F00004AD8124DFB210940E12E6542FF
:1036B000A6B0002218210A2003F030FF6A4DDFF87F
:1036C000ACA14FF07E5B4FF000080DF11809686067
:1036D0004FF0FF326946686804F0C8F80099584610
:1036E000814215D1019A824261D1029A82425ED111
:1036F000039A82425BD1049A824258D1059A5A4574
:1037000055D154465A49DAF80800FCF7DDFD18E0B7
:103710004FF08040814216D1019A824247D1029AED
:10372000824244D1039A824241D1049A82423ED1DC
:10373000059A82423BD154464D49DAF80800FCF71D
:1037400015FEA06044E04B48814215D1019A8242A7
:1037500012D1029A82420FD1039A82420CD1049A6A
:10376000824209D1059A824206D154464049DAF88C
:103770000400FCF7A9FD18E04FF08140814216D10A
:10378000019A824213D1029A824210D1039A824254
:103790000DD1049A82420AD1059A824207D1544639
:1037A0003349DAF80400FCF7E1FD606010E0CAF884
:1037B00000100199CAF804100299CAF80810039978
:1037C000CAF80C100499CAF810100599CAF8141018
:1037D000264926481831FFF76FFC00242BE000BF74
:1037E00004EB440209EB8206204886F80480611C41
:1037F000183009F8221050F82400FDF70AF81E4A84
:1038000002EBC403D3E90023FCF7D9FE0746249159
:10381000FCF7E6FFB0600022384613462499FDF716
:103820000BF802D886F8018001E0012070704FF497
:10383000FA707080641C28688442D1DB0B4F00242E
:103840004E4630370BE000BF04EB440006EB80012E
:10385000002357F824001A4603F0F8FE641C286879
:103860008442BFF635AFEFE700000020E000002003
:103870000000204100004040587E00080F4810B56D
:103880000D4901600921416000214FF480228160CF
:10389000C0E9031292004261017641768176C176D9
:1038A00001774177FDF701FE002803D0BDE8104005
:1038B000FDF706BD10BD0000006400403808002080
:1038C0000D4808B5416941F001014161406900229C
:1038D00000F00100009005210E20FEF7DDFA0E2019
:1038E000FEF7CCFA002205210F20FEF7D5FABDE83D
:1038F00008400F20FEF7C2BA0010024000B587B0A2
:103900001C2207496846FCF78DFC0021684602F03E
:1039100007FD0449086002F019FA07B000BD000075
:10392000E87E0008380000202DE9F04385B000242F
:1039300021480094019402940394816941F00401A8
:103940008161816901F004010491816941F02001E4
:103950008161816901F020010491816941F01001C8
:1039600081618069DFF8548000F010004FF47075B9
:103970000490002229464046FEF7EAF9DFF840901D
:103980004FF48077002239464846FEF7E1F900956A
:10399000022601250396CDE9015469464046FEF70B
:1039A000DBF800970396CDE9015469464846FEF7D7
:1039B000D3F805B0BDE8F0830010024000100140CC
:1039C0000008014010B58EB00024079408940994B3
:1039D0000A940B941C2168460C94FCF73CFC22488A
:1039E000204901604721C0E90114C721C0E903143F
:1039F0008461FEF74FFD08B1FDF762FC4FF4805083
:103A0000079007A91848FEF7DBFD08B1FDF758FC41
:103A10001548FEF78CFF08B1FDF752FC0B940BA97B
:103A200011480C94FEF7F8FC08B1FDF749FC602042
:103A300000906420CDE90104002269460A480494FC
:103A4000FEF70FFF08B1FDF73BFC0422694606486C
:103A5000FEF707FF08B1FDF733FC0348FEF7B8FE99
:103A60000EB010BD000400406008002010B58EB0FC
:103A700000240794089409940A940B941C21684626
:103A80000C94FCF7E8FB2248204901604721C0E97B
:103A90000114C721C0E903148461FEF7FBFC08B1DF
:103AA000FDF70EFC4FF48050079007A91848FEF769
:103AB00087FD08B1FDF704FC1548FEF738FF08B193
:103AC000FDF7FEFB0B940BA911480C94FEF7A4FC28
:103AD00008B1FDF7F5FB602000906420CDE90104FA
:103AE000002269460A480494FEF7BBFE08B1FDF7C0
:103AF000E7FB042269460648FEF7B3FE08B1FDF76E
:103B0000DFFB0348FEF764FE0EB010BD0008004066
:103B1000A80800200C4810B50A4901604FF4E131B3
:103B20004160002181600C22C160C0E90412816102
:103B3000C161FFF7B9F9002803D0BDE81040FDF7D7
:103B4000BFBB10BD00380140F00800202DE9FF5F29
:103B50009846DDE90E7A9346002622E000251DE016
:103B600007FB065900224AF82920144613E000BF3B
:103B700007FB0451019808FB064250F821100098F9
:103B800050F82200FCF7F8FB5AF82910FCF79CFBD0
:103B90004AF82900641C4445EADB6D1CBD42DFDBAA
:103BA000761C5E45DADBBDE8FF9F2DE9F0479A46BB
:103BB00016468946074600250EE0002409E006FB6C
:103BC0000548514657F82800FCF7D6FB47F828006F
:103BD000641CB442F3DB6D1C4D45EEDBBDE8F087A1
:103BE000FEE70EB500220C210A2003F097FC0546E3
:103BF00000F00CF84FF0FF3422466946284603F0E7
:103C000035FE684602F048F8F6E7FEE7044A116818
:103C10000A2904DA034B43F82100491C116070475C
:103C20000000002010010020012002F06DFBFBE7E6
:103C3000084A10B5642102F1180001F0A6FE0648FA
:103C400004490089403182B2BDE81040A1F5887076
:103C5000FEF7B1BFC00900203C00002010B5502085
:103C600080F31188BFF34F8FBFF36F8F03F040FFD6
:103C700018B104494FF080500860002080F311888B
:103C800010BD000004ED00E030B58FB0282168467B
:103C9000FCF7E1FA14210AA8FCF7DDFA0121080477
:103CA000CDE900100024029402250491CDE90750CB
:103CB0004FF4E01009906846FEF71CFA08B172B69E
:103CC000FEE70F20CDE90A054FF48060CDE90C40F6
:103CD00002210AA80E94FEF711F9002801D072B64D
:103CE000FEE70FB030BD70470148FEF7D8BC0000BA
:103CF000600800200148FEF7D2BC0000A8080020A0
:103D00000148FEF7CCBC0000640A0020F0B5026850
:103D1000204C214D214E224F224B4FF0804CA0428F
:103D200009D0984207D0604505D0A84203D0B042E0
:103D300001D0B84204D122F0700E4A6842EA0E0265
:103D4000A04209D0984207D0604505D0A84203D0D0
:103D5000B04201D0B84203D122F44075CA682A4368
:103D60004D6922F080022A4302608A68C2620A68B2
:103D70008262A04201D0984201D109690163012108
:103D800041610169C90703D0016921F001010161A5
:103D9000F0BD0000002C014000040040000800407D
:103DA000000C00400034014010B501F01F03012158
:103DB000046A99408C430462016A9A40114301628B
:103DC00010BD10B5846842EA032224F47F440A43FC
:103DD0002243826010BD826822F070020A4342F0E2
:103DE0000701816070470000F0B5036A026A22F0A3
:103DF0000102026242688469124E24F073050C6865
:103E00002C4323F002058B682B430D4DA84201D0B3
:103E1000B04205D123F00807CB683B4323F00403ED
:103E2000A84201D0B04205D14D6922F44072154339
:103E30008A692A4342608461496841630362F0BD34
:103E4000002C014000340140F0B5026A036A23F0FF
:103E500010030362436884690D6824F4E64444EA6D
:103E600005248D6822F0200242EA05120F4D104E03
:103E7000A84201D0B04206D1CF6822F0800242EAC7
:103E8000071222F04002A84201D0B04207D14D698A
:103E900023F4406343EA85038D6943EA8503436065
:103EA0008461496881630262F0BD0000002C01401A
:103EB00000340140F0B5026A036A23F480730362A0
:103EC0004368C46922F4007224F073050C68124E32
:103ED0002C438D6842EA05220E4DA84201D0B04223
:103EE00006D1CF6822F4006242EA072222F48062FF
:103EF000A84201D0B04207D14D6923F4405343EAB0
:103F000005138D6943EA05134360C4614968C163C1
:103F10000262F0BD002C01400034014030B5046A5B
:103F2000026A22F4805202624268C3690D6823F477
:103F3000E64343EA05238D6824F4005444EA05343B
:103F4000084DA84202D0084DA84204D14D6922F480
:103F5000804242EA85124260C3614968016404629A
:103F600030BD0000002C01400034014010B5036A50
:103F7000046A24F001040462846924F0F00444EA31
:103F8000021423F00A020A438461026210BD10B5D4
:103F9000036A046A24F010040462846923F0A00315
:103FA00024F4704444EA023243EA0111826101625E
:103FB00010BD10B5406A0021C185C184FEF73CFEEA
:103FC00010BD70B5446A2068406994F84110C0F390
:103FD000C0100025212904D118B1E584204600F045
:103FE0008EF82068406994F84210C0F380102229AE
:103FF00004D118B1E585204600F05AF8606C40F015
:10400000100060642046FEF717FE70BD10B5014633
:10401000406A096809684FF0000289062ED4C285FB
:1040200001680C3151E8003F23F4807341E800340B
:10403000002CF5D10168143151E8003F23F0010351
:1040400041E80034002CF5D10168143151E8003FFB
:1040500023F0400341E80034002CF5D1202180F802
:104060004210016B012909D101680C3151E8003F70
:1040700023F0100341E80034002CF5D14263016BBA
:10408000012902D0FEF7B0FF10BD818DFEF7B8FD0B
:1040900010BD10B5406A01214163016B012902D0B6
:1040A000FEF7B0FF10BD818D4908FEF7A9FD10BDD8
:1040B00001680C3151E8002F22F4907241E800238E
:1040C000002BF5D10168143151E8002F22F00102D4
:1040D00041E80023002BF5D1016B012909D10168CA
:1040E0000C3151E8002F22F0100241E80023002B90
:1040F000F5D1202180F8421000210163704701684A
:104100000C3151E8002F22F0C00241E80023002BBF
:10411000F5D1202180F84110704708B590F8421081
:10412000222901D0022008BD82684FF480539A42B0
:1041300001D1016921B1816A9A421BD04AB10AE0DA
:104140000268816A5268C2F308020A80816A891C87
:1041500008E0026972B10268526802F07F020A70D8
:10416000816A491C8162C18D491E0904090CC185FF
:1041700003D01BE002685268F1E70168CA6822F0C8
:104180002002CA600168CA6822F48072CA600168AD
:104190004A6922F001024A61202180F84210002180
:1041A0004163026B012A03D0FEF71EFF002008BD09
:1041B000016301680C3151E8002F22F0100241E840
:1041C0000023002BF5D101680A68D20602D50A68DF
:1041D00049680091818DFEF713FDE7E770B504464D
:1041E00000680169E26821F44051114301612169CD
:1041F000A0680843616908432168CA6841F20C63FA
:104200009A430243CA6020684169A26921F440715F
:10421000114341611E492068884202D1FDF734FFF5
:1042200001E0FDF721FF00EBC00101EB0012606827
:1042300064218000B2FBF0F3B3FBF1F36FF01806DA
:104240007343B2FBF0F5B2FBF0F605EB83053223C6
:1042500003EB0515B5FBF1F5B6FBF1F605F0F0053E
:1042600005EB0615B2FBF0F6B2FBF0F0B0FBF1F097
:104270006FF01802504306EB800003EB0010B0FB18
:10428000F1F0216800F00F002844886070BD000044
:104290000038014038B5816204468285002013460B
:1042A0006064222284F84220E56B1B4AAA62E56B17
:1042B0001A4AEA62E56B1A4A2A63E26B50630A46BD
:1042C0002168E06B091DFDF70FFC2068016840685C
:1042D0000090206948B120680C3050E8001F41F47C
:1042E000807140E80012002AF5D12068143050E8AF
:1042F000001F41F0010140E80012002AF5D12068BA
:10430000143050E8001F41F0400140E80012002A3C
:10431000F5D1002038BD00000D4000089340000892
:10432000C33F00082DE9F843984617460D4604465A
:10433000089E24E0701C22D0FDF710FDA0EB0800C1
:10434000B0421AD8CEB12068C168490717D5802D70
:1043500015D0402D13D00168C94309070FD4016857
:104360000025406800902046FFF7A2FE0820606408
:1043700084F840500120BDE8F8830320FBE7206863
:10438000006835EA000004D00020B842D2D00020F6
:10439000F1E70120F9E700000148FEF74FBC0000FB
:1043A000F0080020FEE700000FB4054B10B503A98C
:1043B000044A029800F034FC10BC5DF814FB0000C5
:1043C000355A0008D8000020490050EAC12018BF23
:1043D00004204A0D18BF40F0010040F2FF72B2EB1A
:1043E000515F08BF40F00200012808BF0520704758
:1043F0000907090E002804DB00F1E02080F8001412
:10440000704700F00F0000F1E02080F8141D7047A5
:104410002DE9F74F144694B00021C4E90211159913
:10442000079121F00045C9498D4206DC1599C4E980
:10443000000117B00020BDE8F08FC549DFF814A3D4
:10444000A9423CDD0799C44E0029C44FC44A1599BE
:10445000534619DDFCF7ADF8554506D0C14AC24BAD
:10446000FCF7A7F8C4E900010AE04FF0D352BE4BB5
:10447000FCF79FF832463B46FCF79BF8C4E9000185
:1044800017B00120BDE8F08FFBF7F2FF554506D0CD
:10449000B44AB54BFBF7ECFFC4E900010AE04FF06A
:1044A000D352B14BFBF7E4FF32463B46FBF7E0FF4C
:1044B000C4E9000117B04FF0FF30BDE8F08FAB4901
:1044C000A942159978DB21F0004183468846A84A25
:1044D000A84BFCF774F80022A74BFBF7C9FFFCF7C9
:1044E000B1FD0990FCF790FD06460F469C4A5346E5
:1044F000FCF765F843465A46FCF75EF880468A4664
:10450000984A994B30463946FCF759F82A0D01254F
:104510000B9242465346FCF74FF8032DC4E90001C5
:1045200039D00B98C1F30A51401A05EB45111139E6
:10453000814230DA9148C346784400EB0510CDF84B
:104540000CA00C90D0E9002330463946FCF737F830
:1045500002460B460491069058460399FCF729F849
:1045600080468A4602460B4658460399FCF721F8D6
:10457000049B069AFCF71DF883460C980391394674
:10458000D0E902233046FCF71AF85A46039BFCF7A1
:1045900010F86D1CBDE707980028A2BF099817B056
:1045A000BDE8F08F616881F000416160099817B043
:1045B0004042BDE8F08FFFE784461598C1F3130130
:1045C000C0F30A50A0F2F5304FEA601800F01F0661
:1045D000C6F12000139000200690079041F4801E41
:1045E00005206D4676B1664A08EB00017A4452F820
:1045F000213002EB8101B3404A68139922FA01F19C
:10460000194305E05F4908EB0002794451F8221094
:10461000A1FB0E27A1FB0C131A449A4234BF0123BD
:10462000002303EB070A05EB8003D3E901B70F442E
:104630008F4234BF0121002193448B4411B1934533
:1046400002D903E0934501D2012100E00021C3E932
:1046500001B7514445F82010011EA0F10100C1DC52
:104660000298059F00F10050800F12900298DDE93A
:1046700003568000FCF7C8FC834628460D91FCF7E2
:10468000D4FC6FF01D02FCF77BF8CDE90E0130463B
:10469000FCF7CBFC6FF03D02FCF772F880468A46CF
:1046A0003846FCF7C2FC6FF05D02FCF769F807467C
:1046B000424653461191FBF7DBFEDDE90E23FBF783
:1046C000D7FE5A460D9BFBF7D3FE00250E465A46F1
:1046D00028460D9BFBF76DFFDDE90E23FBF769FF15
:1046E00042465346FBF765FF3A46119BFBF764FFD2
:1046F000DFF898A0244A5346FBF761FF0746884637
:10470000234A244B31462846FBF759FF3A46434695
:10471000FBF7AEFE074688464FF0A84253463146A7
:104720002846FBF74CFF3A464346FBF7A1FE159A95
:1047300012F0004F04D0129A81F0004152421292BE
:10474000C4E90001129817B0BDE8F08FFB21E93FE2
:104750007CD90240FB21F93F7370032E8A19A33BD9
:10476000000040543163621A61B4D03DFB213941ED
:1047700083C8C96D305FE43F0000E03F143B000098
:10478000903A0000723A0000182D4454FB21F93D84
:104790003326A611460B113C2DE9FF4D21F00048B0
:1047A00007460C46B8F1795F08DAFCF74BFC0028A5
:1047B00001BF0020324904B0BDE8F08D3A462346DF
:1047C00010461946FBF7FBFE054602462D480E46ED
:1047D0000B460621784400F05DF82A463346FBF785
:1047E000EEFEDDE9022382468B4638462146FBF782
:1047F000E6FE04460F4652465B4628463146FBF726
:10480000DEFE22463B46FBF7D4FE07468A464FF0C3
:10481000FF3228463146FBF7B3FF1B4A90450ADAC0
:104820003A465346FBF7C5FE04B00022BDE8F04D02
:10483000134BFBF7C1BE154A4245A8BFA8F50015AA
:104840004FF00004B8BF124D22462B46FBF7B1FED5
:104850000646884622462B4600200949FBF7A9FE5A
:1048600004460D463A46534630464146FBF7A1FE04
:1048700004B022462B46BDE8F04DFBF79DBE00007C
:104880000000F03F403800003333D33F0000E93FE1
:104890000000D23F2DE9F0414F1E00EBC701044656
:1048A000D1E9000115461E4637F006020DD02A4612
:1048B0003346FBF784FE7F1E04EBC703D3E90023D6
:1048C000FBF7D6FD37F00602F1D1022F25D0042FD9
:1048D00013D0062F18BFBDE8F0812A463346FBF7F8
:1048E0006EFED4E90A23FBF7C3FD2A463346FBF7E5
:1048F00066FED4E90823FBF7BBFD2A463346FBF7E7
:104900005EFED4E90623FBF7B3FD2A463346FBF7E8
:1049100056FED4E90423FBF7ABFD2A463346FBF7EA
:104920004EFED4E90223FBF7A3FD2A463346FBF7EC
:1049300046FED4E90023BDE8F041FBF799BD000035
:104940002DE9FF4D054621F0004084B00C46B0F142
:10495000795F0BDA2846FFF737FD042808BF00F01F
:1049600071F8284608B02146BDE8F08D2A460B466E
:104970001046FBF724FE06460F462A462346FBF761
:104980001EFE804626488A4632463B46052178442C
:10499000FFF780FF83461098029160B3214A224BB3
:1049A00040465146FBF70BFECDE900015A46404612
:1049B0005146029BFBF703FE82468846DDE906016D
:1049C0004FF0FF32FBF7DCFE52464346FBF7F1FDAA
:1049D00032463B46FBF7F3FDDDE90623FBF7E9FD35
:1049E000DDE90023FBF7E5FD08B02A462346BDE8D4
:1049F000F04DFBF7E1BD0B465A4630463946FBF712
:104A0000DEFD084A084BFBF733FD42465346FBF7F1
:104A1000D6FD08B02A462346BDE8F04DFBF728BD79
:104A200086370000495555555555C5BF0122FBF73E
:104A3000A7BEFBF71DBD0022134610461146FBF72B
:104A400030BE0000024A00201107FBF799BE0000AB
:104A500001FDFFFF0148006870470000DC000020F6
:104A600002E008C8121F08C1002AFAD17047704737
:104A7000002001E001C1121F002AFBD17047000095
:104A80000149086070470000DC0000202DE9FF5F4D
:104A900082B00021DDE90430020DDDF840B00343AF
:104AA00018D044F61050A2F2FF3242431514119868
:104AB00001281FD0A5EB0B00401C5FEA000A4FF055
:104AC00000064E4FDFF83891B046504615D5CAF172
:104AD000000413E0119801244AA3012801D16FEAD0
:104AE0000B010298119AC0E90031C0E9024206B0F8
:104AF000BDE8F09FCBF10000DFE704460021404A0B
:104B0000491842EB0450CDE9001012E0E00707D04D
:104B100032463B4640464946FBF751FD80468946B2
:104B200032463B4610461946FBF749FD06460F46FE
:104B30006410002CEAD1DDE90401DDE90023BAF1BB
:104B4000000F06DAFBF73BFD42464B46FBF737FD0D
:104B500005E0FBF7A6FD42464B46FBF7A2FD0446E7
:104B60000E460022284BFBF767FE03D84FF0FF30BC
:104B7000014607E00022254B20463146FBF778FC32
:104B8000FCF729F8102409E0002C0ADB0A22002394
:104B9000FBF79CFE039B30321A55641E50EA01025B
:104BA000F2D1641C039AC4F111031444119A012A2E
:104BB00003D0012208430DD10AE0084304D00020AD
:104BC0004FF0110B119072E7A3EB0B056D1E0DE07A
:104BD0005B4504DD4FF0000205F1010504E003DA56
:104BE0004FF00002A5F10105002AECD002981199BE
:104BF000C0E90231C0E9004579E700000000144037
:104C00000000F03F300000000000F0430000E03FF3
:104C100030380A2801D20120704700207047000078
:104C20002DE9FF4F95B09A46884606460025EEE1ED
:104C3000252877D100242746F94A0121039400E072
:104C4000044316F8013F203B01FA03F01042F7D16C
:104C500030782A2811D06FF02F033078A0F130027D
:104C6000092A16D8039A44F0020402EB820203EBED
:104C700042021044761C0390EFE758F8042B03928D
:104C8000002A03DA504244F40054039044F0020432
:104C9000761C30782E2816D116F8010F44F0040443
:104CA0002A280DD06FF02F023078A0F13003092BA5
:104CB00009D807EB870302EB4303C718761CF3E719
:104CC00058F8047B761C30786C280FD006DC4C2812
:104CD00017D068280DD06A2814D104E0742810D0A9
:104CE0007A280FD10DE044F400140AE044F4801453
:104CF00001E044F440147278824202D104F5801439
:104D0000761C761C307866280BD013DC582877D0B8
:104D100009DC002875D04528F6D04628F4D047286D
:104D20001AD193E118E0632835D0642879D065283A
:104D300012D18BE1702873D008DC6728F1D0692884
:104D40006FD06E280DD06F2806D1ACE073282CD020
:104D5000752874D0782853D05246179990476D1C07
:104D600054E1C4F30250022809D003280DD0D8F82A
:104D7000001004280DD00D6008F1040846E1D8F8B1
:104D80000010EA17C1E90052F6E7D8F800100D80CC
:104D9000F2E70D70F0E718F8041B8DF80010002002
:104DA0008DF80100EB46012003E058F804BB4FF0FA
:104DB000FF3061074FF0000102D40DE009F101015D
:104DC0008946B9420FDA8145F8DB1BF80910002942
:104DD000F4D108E009F1010189468142FADB1BF8B0
:104DE00009100029F6D103985346A0EB0907214684
:104DF0003846179A00F080FA284400EB090507E0CE
:104E000044E008E10DE01BF8010B5246179990476A
:104E1000B9F10109F7D2534621463846179AF2E014
:104E200039E00A21C4F302524FF0000B0091022A2C
:104E300006D058F8040BC117032A09D00AE023E072
:104E400008F1070020F00702F2E80201904605E0B1
:104E500000B2C117042A01D140B2C117002906DAF5
:104E60000A460021404261EB02012D2202E02205A8
:104E700004D52B228DF80420012203E0E20701D0A3
:104E80002022F7E7914657E00A2100E010214FF079
:104E9000000B00910BE010214FF0000B44F00404D4
:104EA0000827009103E008204FF0000B0090C4F3A6
:104EB0000252022A05D058F8040B0021032A08D018
:104EC00008E008F1070020F00702F2E8020190462E
:104ED00003E080B2042A00D1C0B24FF000092207DB
:104EE0002AD53278702A07D0DDF800C08CF0100C7B
:104EF0005CEA0B0C05D00EE040228DF80420012264
:104F000008E050EA010306D030238DF804308DF814
:104F1000052002229146009B83F0080353EA0B030D
:104F20000AD150EA010201D1620705D530228DF87D
:104F300004204FF001097F1E3278582A04D039A28C
:104F40000C920CAA02920BE03BA2F9E75B46009A96
:104F5000FBF7BCFC0C9B9B5C029A521E02921370E6
:104F600050EA0102F2D1029804A9081A00F1200BBC
:104F7000600702D524F4803400E001275F4502DD9C
:104F8000A7EB0B0000E0002000EB0B010090039862
:104F90004944401A0390E00306D453462146179A29
:104FA000039800F0A9F90544002706E001A852463D
:104FB000C05D179990476D1C7F1C4F45F6DBE003E1
:104FC0000CD553462146179A039800F095F90544ED
:104FD00004E030205246179990476D1C0099481EF6
:104FE00000900029F5DC08E002980299524600780A
:104FF000491C0291179990476D1CBBF10001ABF160
:10500000010BF1DC5BE100F065F90544761C3078BA
:1050100000287FF40DAE19B02846BDE8F08F0000DF
:10502000092801003031323334353637383961627E
:105030006364656600000000303132333435363742
:10504000383941424344454600000000600700D41F
:10505000062708F1070020F00700F0E80223804649
:1050600003F0004C5FEA0C0001D097A009E0200596
:1050700001D596A005E0E00701D095A001E0AFF2D0
:105080004C001390307823F0004365280CD006DCE8
:10509000452809D046281DD047287FD13BE0662807
:1050A00018D067287AD136E00021112F01DB1120BA
:1050B00000E0781CCDE9000104A90CA8FFF7E6FC8C
:1050C000DDE90D010C9A4FF0000B07F10109109278
:1050D00000914EE04FF000400097CDE9011004A987
:1050E0000CA8FFF7D3FCDDE90D020C9B0F994FF0E4
:1050F000000B91461093009211B9791C00EB010945
:10510000B7EB090003D4C0F1FF3B07F10109A9EB9C
:105110000700019042E0012F00DA01270021112F42
:1051200001DD112000E03846CDE9000104A90CA8FA
:10513000FFF7ACFCDDE90D010C9A00914FF0000B7C
:10514000B946109221070FD4009A4A4503DA9146D6
:1051500001E0A9F10109B9F1010F05DD109AA9F1EA
:105160000101515C3029F4D0B84202DA10F1040F89
:1051700003DA0121CDE9011010E0002803DC8344AB
:10518000A9EB000102E0411C494500DD8946A0EB86
:105190000B00401C01904FF000400290200705D406
:1051A0000198484502DB4FF0FF30019000208DF858
:1051B0004B0002980DF14B07B0F1004F25D00220B3
:1051C0000C902B200D90029800280CDA404202909F
:1051D0002D200D9007E00A210298FBF761FB30318A
:1051E000029007F8011D0C99481E0C900029F2DC72
:1051F00002980028EFD1791E0D980870307800F0E1
:10520000200040F0450007F8020D11A8C01BC01D8A
:1052100002901398007800B1012000EB0901019879
:1052200001EBE071029801440398401A401E03907C
:10523000E00306D453462146179A039800F05CF821
:1052400005441398007818B15246179990476D1C81
:10525000E00323D553462146179A039800F04CF8F3
:1052600005441BE0BBF1000F07DB0098584504DD47
:105270001098179910F80B0001E01799302052464A
:10528000904701980BF1010B401E05F101050190BB
:1052900004D12E205246179990476D1CB9F1000198
:1052A000A9F10109DEDC05E017F8010B5246179958
:1052B00090476D1C0299481E02900029F4DC534669
:1052C0002146179A03989EE62D0000002B0000004F
:1052D000200000002DE9F041044600251E46174637
:1052E000880404D405E039462020B0476D1C641EB4
:1052F000F9D52846BDE8F0812DE9F04104460025A6
:105300001E469046C80301D5302700E020278804B8
:1053100004D505E041463846B0476D1C641EF9D5FA
:105320002846BDE8F08100002DE9F04D0546DFF884
:10533000388221F000408D4F82B00C46404520DB82
:10534000A0EB080129430BD08949884201DC10D128
:105350007DB102B028462146BDE8F04DFFF766BB9F
:10536000002CC7BF002001468248394602B0BDE884
:10537000F08D0120FFF784FB02B0BDE8F04DFFF790
:105380005ABB7D49884244DA7C498142A1BF7948B1
:105390007B4902B0BDE8F08D2A46234610461946E7
:1053A000FBF70DF98346024676480E460B4606216A
:1053B0007844FFF76FFA5A463346FBF700F9074681
:1053C00071488A465A46334604217844FFF762FA08
:1053D0005A463346FBF7F3F800224346FBF748F8FA
:1053E00002460B4638465146FBF75BF92A462346F0
:1053F000FBF7E5F8654A664BFBF7DEF82A462346DD
:10540000FBF7DAF802B05B4ABDE8F04D5C4BFBF706
:10541000D3B8002C4FF000024BDA464643462846EC
:105420002146FBF725F84FF0FF32FBF7A9F90446B8
:10543000024658480D460B4606217844FFF72AFAE3
:1054400022462B46FBF7BBF8804653488A46224645
:105450002B4604217844FFF71DFA22462B46FBF722
:10546000AEF800223346FBF703F806468B4620468B
:10547000294601F0AFFD04460D4632465B464046E4
:105480005146FBF70EF922462B46FBF798F83F4AA8
:105490003F4BFBF78EF822462B46FAF7E9FF012235
:1054A000FBF76EF902B03B46BDE8F04D314AFBF721
:1054B00083B82D4B28462146FBF77EF84FF0FF328C
:1054C000FBF75EF905460E4601F084FD00270C4609
:1054D00080463A460B46FAF7CBFF82468B463A4661
:1054E000234610461946FBF76AF82A463346FBF76F
:1054F00063F852465B46FBF7D4F8824627488B4652
:105500002A46334606217844FFF7C4F92A46334633
:10551000FBF755F8CDE9000121482A46334604211E
:105520007844FFF7B7F92A463346FBF748F80022DC
:105530000D4BFAF79DFF02460B46DDE90001FBF734
:10554000B0F842462346FBF73AF852465B46FAF774
:105550008FFF3A462346FAF78BFF02B00122BDE8DF
:10556000F04DFBF70DB900000000F03FFB210940B2
:105570000000F07F182D44540000E03F0000603C24
:10558000FB21F93F7C2B0000922B0000075C1433B9
:1055900026A6913CF22A0000082B0000262A0000D3
:1055A0003C2A00002DE9F84F04460D4621F000404A
:1055B00000917349814211DC7249884201DC06D1B5
:1055C0002CB120462946BDE8F84FFFF72FBA6E48A8
:1055D000002DCCBF6D496E49BDE8F88F6D49814201
:1055E00011DD6D498142D8BF4FF0FF366DDD204699
:1055F0002946FEF7E9FE042808BFFFF723FA2046F4
:105600002946BDE8F88F6549654F25F00045814280
:1056100033DD6449814219DD002632464FF0804374
:1056200020462946FAF724FF80468A460122204672
:105630002946FBF7A5F800223B46FAF7BAFF424697
:105640005346FBF72EF804460D463EE001260022A5
:10565000BA463B4620462946FAF70AFF80460F46DF
:105660000022534620462946FAF7A3FF42463B460E
:10567000FBF717F804460D4627E04B4981421BDD36
:10568000DFF828A102260022534620462946FAF7D1
:1056900096FF00223B46FAF7EBFE80460F460022BB
:1056A000534620462946FAF784FF42463B46FAF71E
:1056B000F8FF04460D4608E0032622462B4600204C
:1056C0003B49FAF7EEFF04460D4622462B461046AC
:1056D0001946FAF774FF8B46824602460B46FAF7E4
:1056E0006EFF07460246334888460B46062178443B
:1056F000FFF7D0F852465B46FAF761FF82462E4824
:105700008B463A46434605217844FFF7C3F83A46AC
:105710004346FAF754FF02460B46002E50465946C0
:105720000CDAFAF7A5FE22462B46FAF748FF01B03D
:1057300022462B46BDE8F04FFAF73EBFFAF798FE37
:1057400022462B46FAF73BFF1C4A7A4402EBC6037B
:10575000D3E90023FAF72DFF22462B46FAF729FF5B
:10576000174A7A4402EBC603D3E90023FAF724FF71
:10577000009A002AB8BF81F00041BDE8F88F000010
:10578000000010440000F07F182D4454FB21F93F25
:10579000FB21F9BF0000DC3F0000203E0000F33F8A
:1057A0000000F03F0000E63F008003400000F83FAB
:1057B0000000F0BFF6280000B428000052280000C6
:1057C0001A2800002DE9F04D9446CCF1000423F096
:1057D00000464CEA0404594F46EAD4749A46884677
:1057E00021F00042BC4206D8454240EA050442EAA4
:1057F000D474BC4204D9BDE8F04D6246FFF719B934
:10580000AAF14055A5F17F6555EA0C040BD002249E
:1058100004EAAA744A4DDFF82CE144EAD87452EA4B
:10582000000B04D00CE0BDE8F04DFFF7BBBE002C30
:1058300014BF012CBDE8F08D022C30D0032C32D0E7
:1058400056EA0C0B0AD0BE4220D1BA4209D126F04A
:10585000804622F080423346114617E000291ADBC9
:1058600025E0DFF8E4B0FB44002C04BFDBE90001D5
:10587000BDE8F08D012C02BFDBE9000181F00041A1
:10588000BDE8F08D022C0AD0032C0CD0BA4212D104
:10589000B8F1000F0BDA2A482C49BDE8F08D2846F4
:1058A0002B49BDE8F08D28467146BDE8F08D2448AF
:1058B0002849BDE8F08D921B12153C2AC4BF204F29
:1058C000244E10DCBAF1000FBEBF12F13C0F0027CE
:1058D0003E4608DB6246FAF7E4FE21F00041FFF79E
:1058E00061FE07460E4694B1012C08BF86F00046C3
:1058F0000DD0194A194B022C3846314615D0FAF70B
:1059000058FE2A46BDE8F04D114BFAF752BE002270
:10591000134638463146FBF777F904BF0220FFF7FC
:10592000AFF838463146BDE8F08DFAF742FE2A4618
:10593000BDE8F04D064BFAF73FBE00000000F07FD7
:10594000182D4454FB2109C0DE270000FB21F9BFBC
:10595000FB210940FB21F93F075C143326A6A13C3B
:1059600030B583B00446FFF775F805460020CDE951
:105970000000024621466846FBF715F82846FFF767
:105980007FF8DDE9000103B030BD00234360036010
:10599000C0E902127047000000B5244B21F000421C
:1059A00087B09A42DCBF0022134629DD204B9A4281
:1059B00008D140B94FF00100FFF762F8FFF73BF85C
:1059C00007B000BD03DBFFF731F807B000BD02AA46
:1059D000FEF71EFD10F0030104BF0DF1080C9CE85A
:1059E0000F000DD0012001290ED0022914D00DF195
:1059F000080C00909CE80F00FEF7A2FF07B000BD66
:105A0000FEF7CAFE07B000BD0DF1080C00909CE83F
:105A10000F00FEF795FF05E00DF1080C9CE80F0064
:105A2000FEF7BAFE07B081F0004100BDFB21E93F5F
:105A30000000F07F13B54FF6FF730122694602485C
:105A4000FDF7E1FA00981CBDF00800202DE9F041B7
:105A500004460068086020694860206A88600D4636
:105A6000E16A206AFAF788FC0746E1692069FAF7DB
:105A700083FC06462068E16880F00040FAF77CFC71
:105A80003146FAF773FC3946FAF770FCE860606853
:105A9000286160696861606AA861E16A606AFAF712
:105AA0006BFC0746E1696069FAF766FC06466068C8
:105AB000E16880F00040FAF75FFC3146FAF756FCE7
:105AC0003946FAF753FCE861A0682862A069686269
:105AD000A06AA862D4E90A01FAF74EFC0746D4E9A5
